{
  "address": "0xfD7081dE716971Cc3451c20535bcf9e6b1f5D6c9",
  "abi": [
    {
      "inputs": [],
      "stateMutability": "nonpayable",
      "type": "constructor"
    },
    {
      "inputs": [
        {
          "internalType": "address",
          "name": "sender",
          "type": "address"
        },
        {
          "internalType": "uint256",
          "name": "tokenId",
          "type": "uint256"
        },
        {
          "internalType": "address",
          "name": "owner",
          "type": "address"
        }
      ],
      "name": "ERC721IncorrectOwner",
      "type": "error"
    },
    {
      "inputs": [
        {
          "internalType": "address",
          "name": "operator",
          "type": "address"
        },
        {
          "internalType": "uint256",
          "name": "tokenId",
          "type": "uint256"
        }
      ],
      "name": "ERC721InsufficientApproval",
      "type": "error"
    },
    {
      "inputs": [
        {
          "internalType": "address",
          "name": "approver",
          "type": "address"
        }
      ],
      "name": "ERC721InvalidApprover",
      "type": "error"
    },
    {
      "inputs": [
        {
          "internalType": "address",
          "name": "operator",
          "type": "address"
        }
      ],
      "name": "ERC721InvalidOperator",
      "type": "error"
    },
    {
      "inputs": [
        {
          "internalType": "address",
          "name": "owner",
          "type": "address"
        }
      ],
      "name": "ERC721InvalidOwner",
      "type": "error"
    },
    {
      "inputs": [
        {
          "internalType": "address",
          "name": "receiver",
          "type": "address"
        }
      ],
      "name": "ERC721InvalidReceiver",
      "type": "error"
    },
    {
      "inputs": [
        {
          "internalType": "address",
          "name": "sender",
          "type": "address"
        }
      ],
      "name": "ERC721InvalidSender",
      "type": "error"
    },
    {
      "inputs": [
        {
          "internalType": "uint256",
          "name": "tokenId",
          "type": "uint256"
        }
      ],
      "name": "ERC721NonexistentToken",
      "type": "error"
    },
    {
      "inputs": [],
      "name": "ZamaProtocolUnsupported",
      "type": "error"
    },
    {
      "anonymous": false,
      "inputs": [
        {
          "indexed": true,
          "internalType": "address",
          "name": "owner",
          "type": "address"
        },
        {
          "indexed": true,
          "internalType": "address",
          "name": "approved",
          "type": "address"
        },
        {
          "indexed": true,
          "internalType": "uint256",
          "name": "tokenId",
          "type": "uint256"
        }
      ],
      "name": "Approval",
      "type": "event"
    },
    {
      "anonymous": false,
      "inputs": [
        {
          "indexed": true,
          "internalType": "address",
          "name": "owner",
          "type": "address"
        },
        {
          "indexed": true,
          "internalType": "address",
          "name": "operator",
          "type": "address"
        },
        {
          "indexed": false,
          "internalType": "bool",
          "name": "approved",
          "type": "bool"
        }
      ],
      "name": "ApprovalForAll",
      "type": "event"
    },
    {
      "anonymous": false,
      "inputs": [
        {
          "indexed": true,
          "internalType": "address",
          "name": "student",
          "type": "address"
        },
        {
          "indexed": false,
          "internalType": "uint256",
          "name": "consecutiveDays",
          "type": "uint256"
        }
      ],
      "name": "CheckInRecorded",
      "type": "event"
    },
    {
      "anonymous": false,
      "inputs": [
        {
          "indexed": true,
          "internalType": "address",
          "name": "student",
          "type": "address"
        },
        {
          "indexed": true,
          "internalType": "uint256",
          "name": "courseId",
          "type": "uint256"
        }
      ],
      "name": "CoursePassed",
      "type": "event"
    },
    {
      "anonymous": false,
      "inputs": [
        {
          "indexed": true,
          "internalType": "address",
          "name": "student",
          "type": "address"
        },
        {
          "indexed": true,
          "internalType": "uint256",
          "name": "courseId",
          "type": "uint256"
        },
        {
          "indexed": false,
          "internalType": "bytes32",
          "name": "handle",
          "type": "bytes32"
        }
      ],
      "name": "ScoreUploaded",
      "type": "event"
    },
    {
      "anonymous": false,
      "inputs": [
        {
          "indexed": true,
          "internalType": "address",
          "name": "student",
          "type": "address"
        },
        {
          "indexed": true,
          "internalType": "uint256",
          "name": "skillId",
          "type": "uint256"
        },
        {
          "indexed": false,
          "internalType": "uint256",
          "name": "courseId",
          "type": "uint256"
        }
      ],
      "name": "SkillProofGenerated",
      "type": "event"
    },
    {
      "anonymous": false,
      "inputs": [
        {
          "indexed": true,
          "internalType": "address",
          "name": "student",
          "type": "address"
        },
        {
          "indexed": true,
          "internalType": "uint256",
          "name": "timestamp",
          "type": "uint256"
        }
      ],
      "name": "StudyDataRecorded",
      "type": "event"
    },
    {
      "anonymous": false,
      "inputs": [
        {
          "indexed": true,
          "internalType": "address",
          "name": "from",
          "type": "address"
        },
        {
          "indexed": true,
          "internalType": "address",
          "name": "to",
          "type": "address"
        },
        {
          "indexed": true,
          "internalType": "uint256",
          "name": "tokenId",
          "type": "uint256"
        }
      ],
      "name": "Transfer",
      "type": "event"
    },
    {
      "inputs": [
        {
          "internalType": "address",
          "name": "to",
          "type": "address"
        },
        {
          "internalType": "uint256",
          "name": "tokenId",
          "type": "uint256"
        }
      ],
      "name": "approve",
      "outputs": [],
      "stateMutability": "nonpayable",
      "type": "function"
    },
    {
      "inputs": [
        {
          "internalType": "address",
          "name": "owner",
          "type": "address"
        }
      ],
      "name": "balanceOf",
      "outputs": [
        {
          "internalType": "uint256",
          "name": "",
          "type": "uint256"
        }
      ],
      "stateMutability": "view",
      "type": "function"
    },
    {
      "inputs": [
        {
          "internalType": "externalEuint32",
          "name": "studyTimeEuint32",
          "type": "bytes32"
        },
        {
          "internalType": "bytes",
          "name": "studyTimeProof",
          "type": "bytes"
        }
      ],
      "name": "checkIn",
      "outputs": [
        {
          "internalType": "uint256",
          "name": "consecutiveDays",
          "type": "uint256"
        }
      ],
      "stateMutability": "nonpayable",
      "type": "function"
    },
    {
      "inputs": [],
      "name": "confidentialProtocolId",
      "outputs": [
        {
          "internalType": "uint256",
          "name": "",
          "type": "uint256"
        }
      ],
      "stateMutability": "view",
      "type": "function"
    },
    {
      "inputs": [
        {
          "internalType": "string",
          "name": "courseName",
          "type": "string"
        },
        {
          "internalType": "externalEuint32",
          "name": "thresholdEuint32",
          "type": "bytes32"
        },
        {
          "internalType": "bytes",
          "name": "thresholdProof",
          "type": "bytes"
        }
      ],
      "name": "createCourse",
      "outputs": [
        {
          "internalType": "uint256",
          "name": "courseId",
          "type": "uint256"
        }
      ],
      "stateMutability": "nonpayable",
      "type": "function"
    },
    {
      "inputs": [
        {
          "internalType": "uint256",
          "name": "courseId",
          "type": "uint256"
        }
      ],
      "name": "generateSkillProof",
      "outputs": [
        {
          "internalType": "uint256",
          "name": "skillId",
          "type": "uint256"
        }
      ],
      "stateMutability": "nonpayable",
      "type": "function"
    },
    {
      "inputs": [
        {
          "internalType": "uint256",
          "name": "tokenId",
          "type": "uint256"
        }
      ],
      "name": "getApproved",
      "outputs": [
        {
          "internalType": "address",
          "name": "",
          "type": "address"
        }
      ],
      "stateMutability": "view",
      "type": "function"
    },
    {
      "inputs": [
        {
          "internalType": "address",
          "name": "student",
          "type": "address"
        }
      ],
      "name": "getCheckInStats",
      "outputs": [
        {
          "internalType": "uint256",
          "name": "consecutiveDays",
          "type": "uint256"
        },
        {
          "internalType": "uint256",
          "name": "lastCheckInDay",
          "type": "uint256"
        }
      ],
      "stateMutability": "view",
      "type": "function"
    },
    {
      "inputs": [
        {
          "internalType": "uint256",
          "name": "courseId",
          "type": "uint256"
        }
      ],
      "name": "getCourse",
      "outputs": [
        {
          "internalType": "string",
          "name": "name",
          "type": "string"
        },
        {
          "internalType": "bytes32",
          "name": "thresholdHandle",
          "type": "bytes32"
        },
        {
          "internalType": "bool",
          "name": "exists",
          "type": "bool"
        }
      ],
      "stateMutability": "view",
      "type": "function"
    },
    {
      "inputs": [
        {
          "internalType": "address",
          "name": "student",
          "type": "address"
        },
        {
          "internalType": "uint256",
          "name": "courseId",
          "type": "uint256"
        }
      ],
      "name": "getScore",
      "outputs": [
        {
          "internalType": "bytes32",
          "name": "scoreHandle",
          "type": "bytes32"
        },
        {
          "internalType": "bytes32",
          "name": "passedHandle",
          "type": "bytes32"
        }
      ],
      "stateMutability": "view",
      "type": "function"
    },
    {
      "inputs": [
        {
          "internalType": "address",
          "name": "student",
          "type": "address"
        },
        {
          "internalType": "uint256",
          "name": "skillId",
          "type": "uint256"
        }
      ],
      "name": "getSkillProof",
      "outputs": [
        {
          "internalType": "uint256",
          "name": "courseId",
          "type": "uint256"
        },
        {
          "internalType": "uint256",
          "name": "timestamp",
          "type": "uint256"
        },
        {
          "internalType": "bool",
          "name": "exists",
          "type": "bool"
        }
      ],
      "stateMutability": "view",
      "type": "function"
    },
    {
      "inputs": [
        {
          "internalType": "address",
          "name": "student",
          "type": "address"
        },
        {
          "internalType": "uint256",
          "name": "timestamp",
          "type": "uint256"
        }
      ],
      "name": "getStudyData",
      "outputs": [
        {
          "internalType": "bytes32",
          "name": "studyTimeHandle",
          "type": "bytes32"
        },
        {
          "internalType": "bytes32",
          "name": "focusLevelHandle",
          "type": "bytes32"
        },
        {
          "internalType": "bool",
          "name": "exists",
          "type": "bool"
        }
      ],
      "stateMutability": "view",
      "type": "function"
    },
    {
      "inputs": [
        {
          "internalType": "address",
          "name": "student",
          "type": "address"
        }
      ],
      "name": "getStudyDays",
      "outputs": [
        {
          "internalType": "uint256[]",
          "name": "dayTimestamps",
          "type": "uint256[]"
        }
      ],
      "stateMutability": "view",
      "type": "function"
    },
    {
      "inputs": [
        {
          "internalType": "address",
          "name": "owner",
          "type": "address"
        },
        {
          "internalType": "address",
          "name": "operator",
          "type": "address"
        }
      ],
      "name": "isApprovedForAll",
      "outputs": [
        {
          "internalType": "bool",
          "name": "",
          "type": "bool"
        }
      ],
      "stateMutability": "view",
      "type": "function"
    },
    {
      "inputs": [],
      "name": "name",
      "outputs": [
        {
          "internalType": "string",
          "name": "",
          "type": "string"
        }
      ],
      "stateMutability": "view",
      "type": "function"
    },
    {
      "inputs": [
        {
          "internalType": "uint256",
          "name": "tokenId",
          "type": "uint256"
        }
      ],
      "name": "ownerOf",
      "outputs": [
        {
          "internalType": "address",
          "name": "",
          "type": "address"
        }
      ],
      "stateMutability": "view",
      "type": "function"
    },
    {
      "inputs": [
        {
          "internalType": "uint256",
          "name": "timestamp",
          "type": "uint256"
        },
        {
          "internalType": "externalEuint32",
          "name": "studyTimeEuint32",
          "type": "bytes32"
        },
        {
          "internalType": "bytes",
          "name": "studyTimeProof",
          "type": "bytes"
        },
        {
          "internalType": "externalEuint32",
          "name": "focusLevelEuint32",
          "type": "bytes32"
        },
        {
          "internalType": "bytes",
          "name": "focusLevelProof",
          "type": "bytes"
        }
      ],
      "name": "recordStudyData",
      "outputs": [],
      "stateMutability": "nonpayable",
      "type": "function"
    },
    {
      "inputs": [
        {
          "internalType": "address",
          "name": "from",
          "type": "address"
        },
        {
          "internalType": "address",
          "name": "to",
          "type": "address"
        },
        {
          "internalType": "uint256",
          "name": "tokenId",
          "type": "uint256"
        }
      ],
      "name": "safeTransferFrom",
      "outputs": [],
      "stateMutability": "nonpayable",
      "type": "function"
    },
    {
      "inputs": [
        {
          "internalType": "address",
          "name": "from",
          "type": "address"
        },
        {
          "internalType": "address",
          "name": "to",
          "type": "address"
        },
        {
          "internalType": "uint256",
          "name": "tokenId",
          "type": "uint256"
        },
        {
          "internalType": "bytes",
          "name": "data",
          "type": "bytes"
        }
      ],
      "name": "safeTransferFrom",
      "outputs": [],
      "stateMutability": "nonpayable",
      "type": "function"
    },
    {
      "inputs": [
        {
          "internalType": "address",
          "name": "operator",
          "type": "address"
        },
        {
          "internalType": "bool",
          "name": "approved",
          "type": "bool"
        }
      ],
      "name": "setApprovalForAll",
      "outputs": [],
      "stateMutability": "nonpayable",
      "type": "function"
    },
    {
      "inputs": [
        {
          "internalType": "string",
          "name": "newBaseURI",
          "type": "string"
        }
      ],
      "name": "setBaseURI",
      "outputs": [],
      "stateMutability": "nonpayable",
      "type": "function"
    },
    {
      "inputs": [
        {
          "internalType": "bytes4",
          "name": "interfaceId",
          "type": "bytes4"
        }
      ],
      "name": "supportsInterface",
      "outputs": [
        {
          "internalType": "bool",
          "name": "",
          "type": "bool"
        }
      ],
      "stateMutability": "view",
      "type": "function"
    },
    {
      "inputs": [],
      "name": "symbol",
      "outputs": [
        {
          "internalType": "string",
          "name": "",
          "type": "string"
        }
      ],
      "stateMutability": "view",
      "type": "function"
    },
    {
      "inputs": [
        {
          "internalType": "uint256",
          "name": "tokenId",
          "type": "uint256"
        }
      ],
      "name": "tokenURI",
      "outputs": [
        {
          "internalType": "string",
          "name": "",
          "type": "string"
        }
      ],
      "stateMutability": "view",
      "type": "function"
    },
    {
      "inputs": [
        {
          "internalType": "address",
          "name": "from",
          "type": "address"
        },
        {
          "internalType": "address",
          "name": "to",
          "type": "address"
        },
        {
          "internalType": "uint256",
          "name": "tokenId",
          "type": "uint256"
        }
      ],
      "name": "transferFrom",
      "outputs": [],
      "stateMutability": "nonpayable",
      "type": "function"
    },
    {
      "inputs": [
        {
          "internalType": "uint256",
          "name": "courseId",
          "type": "uint256"
        },
        {
          "internalType": "externalEuint32",
          "name": "scoreEuint32",
          "type": "bytes32"
        },
        {
          "internalType": "bytes",
          "name": "scoreProof",
          "type": "bytes"
        }
      ],
      "name": "uploadScore",
      "outputs": [],
      "stateMutability": "nonpayable",
      "type": "function"
    }
  ],
  "transactionHash": "0xf7c7011e5b1a05c138c026d637d6509360cc48b3f27c0fe532c46339c3febea9",
  "args": [],
  "numDeployments": 4,
  "solcInputHash": "4dd8dbda9e0f8dda67b59552033e65c6",
  "bytecode": "0x608060405234801561000f575f5ffd5b506040518060400160405280601581526020017f456e6372797074656420536b696c6c2050726f6f6600000000000000000000008152506040518060400160405280600381526020016204553560ec1b81525061011c61007361016360201b60201c565b80517f9e7b61f58c47dc699ac88507c4f5bb9f121c03808c5676a8078fe583e464970080546001600160a01b03199081166001600160a01b039384161790915560208301517f9e7b61f58c47dc699ac88507c4f5bb9f121c03808c5676a8078fe583e46497018054831691841691909117905560408301517f9e7b61f58c47dc699ac88507c4f5bb9f121c03808c5676a8078fe583e46497028054909216921691909117905550565b5f610127838261036a565b506001610134828261036a565b50505f6009819055600a8190556040805160208101909152908152600b915061015d908261036a565b50610424565b604080516060810182525f8082526020820181905291810191909152466001036101bc575060408051606080820183525f8083526020808401829052928401819052835191820184528082529181018290529182015290565b4662aa36a70361023b575060408051606080820183525f8083526020808401829052928401528251908101835273f0ffdc93b7e186bc2f8cb3daa75d86d1930a433d81527392c920834ec8941d2c77d188936e1f7a6f49c1279181019190915273be0e383937d564d7ff0bc3b46c51f0bf8d5c311a9181019190915290565b46617a69036102b9575060408051606080820183525f8083526020808401829052928401528251908101835273f0ffdc93b7e186bc2f8cb3daa75d86d1930a433d81527392c920834ec8941d2c77d188936e1f7a6f49c1279181019190915273be0e383937d564d7ff0bc3b46c51f0bf8d5c311a9181019190915290565b6040516373cac13b60e01b815260040160405180910390fd5b634e487b7160e01b5f52604160045260245ffd5b600181811c908216806102fa57607f821691505b60208210810361031857634e487b7160e01b5f52602260045260245ffd5b50919050565b601f82111561036557805f5260205f20601f840160051c810160208510156103435750805b601f840160051c820191505b81811015610362575f815560010161034f565b50505b505050565b81516001600160401b03811115610383576103836102d2565b6103978161039184546102e6565b8461031e565b6020601f8211600181146103c9575f83156103b25750848201515b5f19600385901b1c1916600184901b178455610362565b5f84815260208120601f198516915b828110156103f857878501518255602094850194600190920191016103d8565b508482101561041557868401515f19600387901b60f8161c191681555b50505050600190811b01905550565b61259a806104315f395ff3fe608060405234801561000f575f5ffd5b50600436106101a5575f3560e01c806370a08231116100e85780639d54080a11610093578063c87b56dd1161006e578063c87b56dd146103f7578063d36589231461040a578063e985e9c51461041d578063f6cbb63e14610458575f5ffd5b80639d54080a146103a9578063a22cb465146103d1578063b88d4fde146103e4575f5ffd5b806395d89b41116100c357806395d89b41146103295780639a1784ed146103315780639b87aa3a14610361575f5ffd5b806370a08231146102fb5780638927b0301461030e5780639098b90414610316575f5ffd5b806323b872dd116101535780634ad2f96c1161012e5780634ad2f96c146102a257806355f804b3146102c25780636352211e146102d55780636497cf91146102e8575f5ffd5b806323b872dd1461025b57806342842e0e1461026e5780634934b3e214610281575f5ffd5b8063081812fc11610183578063081812fc146101fb578063095ea7b3146102265780630b91e28d14610239575f5ffd5b806301ffc9a7146101a9578063036e2e5b146101d157806306fdde03146101e6575b5f5ffd5b6101bc6101b7366004611d40565b61048b565b60405190151581526020015b60405180910390f35b6101e46101df366004611da0565b6104dc565b005b6101ee61066f565b6040516101c89190611e1d565b61020e610209366004611e2f565b6106fe565b6040516001600160a01b0390911681526020016101c8565b6101e4610234366004611e61565b610725565b61024c610247366004611e2f565b610734565b6040516101c893929190611e89565b6101e4610269366004611eb2565b6107f2565b6101e461027c366004611eb2565b61087b565b61029461028f366004611eec565b61089a565b6040519081526020016101c8565b6102b56102b0366004611f34565b610a64565b6040516101c89190611f4d565b6101e46102d0366004611f8f565b610ad0565b61020e6102e3366004611e2f565b610add565b6102946102f6366004612059565b610ae7565b610294610309366004611f34565b610bb4565b610294610bf9565b610294610324366004611e2f565b610c07565b6101ee610d7d565b61034461033f366004611e61565b610d8c565b6040805193845260208401929092521515908201526060016101c8565b61034461036f366004611e61565b6001600160a01b03919091165f9081526008602090815260408083209383529290522080546001820154600290920154909260ff90911690565b6103bc6103b7366004611e61565b610df1565b604080519283526020830191909152016101c8565b6101e46103df3660046120c4565b610e8d565b6101e46103f23660046120fd565b610e98565b6101ee610405366004611e2f565b610eb0565b6101e4610418366004612174565b610f70565b6101bc61042b3660046121ff565b6001600160a01b039182165f90815260056020908152604080832093909416825291909152205460ff1690565b6103bc610466366004611f34565b6001600160a01b03165f90815260066020819052604090912060058101549101549091565b5f6001600160e01b031982166380ac58cd60e01b14806104bb57506001600160e01b03198216635b5e139f60e01b145b806104d657506301ffc9a760e01b6001600160e01b03198316145b92915050565b5f84815260076020526040902060020154849060ff166105435760405162461bcd60e51b815260206004820152601560248201527f436f7572736520646f6573206e6f74206578697374000000000000000000000060448201526064015b60405180910390fd5b5f6105838585858080601f0160208091040260200160405190810160405280939291908181526020018383808284375f9201919091525061110292505050565b335f9081526006602090815260408083208a8452808352818420859055600281018352818420805460ff19166001908117909155600790935290832091820154939450929091906105f1906105d990869061110f565b6105e3600161113d565b6105ec5f61113d565b61114f565b5f8a81526001850160205260409020819055905061060e81611196565b5061061981336111a5565b5061062384611196565b5061062e84336111a5565b5088337f254f56fa216fdd13bad348724a88a8f7b0ece70b635760f2fb9c22887a6dec658660405190815260200160405180910390a3505050505050505050565b60605f805461067d90612230565b80601f01602080910402602001604051908101604052809291908181526020018280546106a990612230565b80156106f45780601f106106cb576101008083540402835291602001916106f4565b820191905f5260205f20905b8154815290600101906020018083116106d757829003601f168201915b5050505050905090565b5f610708826111b7565b505f828152600460205260409020546001600160a01b03166104d6565b6107308282336111ef565b5050565b5f818152600760205260408120600181015460609291829181906002830154825460ff90911690839061076690612230565b80601f016020809104026020016040519081016040528092919081815260200182805461079290612230565b80156107dd5780601f106107b4576101008083540402835291602001916107dd565b820191905f5260205f20905b8154815290600101906020018083116107c057829003601f168201915b50505050509250935093509350509193909250565b6001600160a01b03821661081b57604051633250574960e11b81525f600482015260240161053a565b5f6108278383336111fc565b9050836001600160a01b0316816001600160a01b031614610875576040516364283d7b60e01b81526001600160a01b038086166004830152602482018490528216604482015260640161053a565b50505050565b61089583838360405180602001604052805f815250610e98565b505050565b5f5f6108db8585858080601f0160208091040260200160405190810160405280939291908181526020018383808284375f9201919091525061110292505050565b335f9081526006602052604081209192506108f96201518042612276565b905081600601545f14806109105750808260060154105b15610a1c5760068201541580610933575061092c600182612295565b8260060154145b1561095357600582018054905f610949836122a8565b919050555061095b565b600160058301555b600682018190555f61097082620151806122c0565b5f81815260048501602052604090206002015490915060ff166109a7576003830180546001810182555f9182526020909120018190555b60405180606001604052808581526020016109c15f61113d565b8152600160209182018190525f84815260048701835260409081902084518155928401519183019190915591909101516002909101805460ff1916911515919091179055610a0e84611196565b50610a1984336111a5565b50505b600582015460405181815290945033907fc23cd1eb00453a6ebb764283abe3bbbe569b49e1af50055a3127b223ac1fc0749060200160405180910390a25050505b9392505050565b6001600160a01b0381165f90815260066020908152604091829020600301805483518184028101840190945280845260609392830182828015610ac457602002820191905f5260205f20905b815481526020019060010190808311610ab0575b50505050509050919050565b600b61089582848361231b565b5f6104d6826111b7565b5f5f610b288585858080601f0160208091040260200160405190810160405280939291908181526020018383808284375f9201919091525061110292505050565b9050610b3381611196565b506009546040805160608101825288815260208082018590526001828401525f848152600790915291909120815192945090918190610b7290826123d5565b50602082015160018201556040909101516002909101805460ff191691151591909117905560098054905f610ba6836122a8565b919050555050949350505050565b5f6001600160a01b038216610bde576040516322718ad960e21b81525f600482015260240161053a565b506001600160a01b03165f9081526003602052604090205490565b5f610c026112fb565b905090565b5f81815260076020526040812060020154829060ff16610c695760405162461bcd60e51b815260206004820152601560248201527f436f7572736520646f6573206e6f742065786973740000000000000000000000604482015260640161053a565b335f908152600660209081526040808320868452600281019092529091205460ff16610cd75760405162461bcd60e51b815260206004820152601260248201527f53636f7265206e6f742075706c6f616465640000000000000000000000000000604482015260640161053a565b600a549250610ce6338461132f565b604080516060810182528581524260208083019182526001838501818152335f818152600885528781208b8252855287902095518655935185830155516002909401805460ff191694151594909417909355600a805490930190925591518681528592917fc0bb3a37f7e94f088f488e32e2f9372173008df66eb4c9c3b5a5c8e830bfbb8f910160405180910390a3505b50919050565b60606001805461067d90612230565b5f808080610d9d6201518086612276565b610daa90620151806122c0565b6001600160a01b03969096165f908152600660209081526040808320988352600490980190529590952080546001820154600290920154909791965060ff16945092505050565b5f818152600760205260408120600201548190839060ff16610e555760405162461bcd60e51b815260206004820152601560248201527f436f7572736520646f6573206e6f742065786973740000000000000000000000604482015260640161053a565b5050506001600160a01b03919091165f9081526006602090815260408083209383528382528083205460019094019091529020549091565b610730338383611348565b610ea38484846107f2565b61087533858585856113e6565b5f818152600260205260409020546060906001600160a01b0316610f165760405162461bcd60e51b815260206004820152601160248201527f4e6f6e6578697374656e7420746f6b656e000000000000000000000000000000604482015260640161053a565b5f610f1f61150e565b905080515f03610f3e57505060408051602081019091525f8152919050565b80610f488461151d565b604051602001610f599291906124a7565b604051602081830303815290604052915050919050565b5f610fb08787878080601f0160208091040260200160405190810160405280939291908181526020018383808284375f9201919091525061110292505050565b90505f610ff28585858080601f0160208091040260200160405190810160405280939291908181526020018383808284375f9201919091525061110292505050565b335f908152600660205260408120919250611010620151808c612276565b61101d90620151806122c0565b5f81815260048401602052604090206002015490915060ff16611054576003820180546001810182555f9182526020909120018190555b60408051606081018252858152602080820186815260018385018181525f878152600489019094529490922092518355519082015590516002909101805460ff19169115159190911790556110a884611196565b506110b384336111a5565b506110bd83611196565b506110c883336111a5565b50604051819033907feb55452cb25021a5e010e417e362ca82f74e86795bad41ebf611a5d6c741798e905f90a35050505050505050505050565b5f610a5d838360046115ba565b5f826111215761111e5f61113d565b92505b816111325761112f5f61113d565b91505b610a5d83835f6116da565b5f6104d68263ffffffff1660046117ba565b5f836111615761115e5f61186f565b93505b826111725761116f5f61113d565b92505b81611183576111805f61113d565b91505b61118e84848461188a565b949350505050565b5f6111a18230611933565b5090565b5f6111b08383611933565b5090919050565b5f818152600260205260408120546001600160a01b0316806104d657604051637e27328960e01b81526004810184905260240161053a565b61089583838360016119bc565b5f828152600260205260408120546001600160a01b039081169083161561122857611228818486611aeb565b6001600160a01b03811615611262576112435f855f5f6119bc565b6001600160a01b0381165f90815260036020526040902080545f190190555b6001600160a01b03851615611290576001600160a01b0385165f908152600360205260409020805460010190555b5f84815260026020526040808220805473ffffffffffffffffffffffffffffffffffffffff19166001600160a01b0389811691821790925591518793918516917fddf252ad1be2c89b69c2b068fc378daa952ba7f163c4a11628f55a4df523b3ef91a4949350505050565b5f4660010361130a5750600190565b4662aa36a70361131b575061271190565b46617a690361132a57505f1990565b505f90565b610730828260405180602001604052805f815250611b4f565b6001600160a01b03821661137a57604051630b61174360e31b81526001600160a01b038316600482015260240161053a565b6001600160a01b038381165f81815260056020908152604080832094871680845294825291829020805460ff191686151590811790915591519182527f17307eab39ab6107e8899845ad3d59bd9653f200f220920489ca2b5937696c31910160405180910390a3505050565b6001600160a01b0383163b1561150757604051630a85bd0160e11b81526001600160a01b0384169063150b7a02906114289088908890879087906004016124bb565b6020604051808303815f875af1925050508015611462575060408051601f3d908101601f1916820190925261145f918101906124f1565b60015b6114c9573d80801561148f576040519150601f19603f3d011682016040523d82523d5f602084013e611494565b606091505b5080515f036114c157604051633250574960e11b81526001600160a01b038516600482015260240161053a565b805160208201fd5b6001600160e01b03198116630a85bd0160e11b1461150557604051633250574960e11b81526001600160a01b038516600482015260240161053a565b505b5050505050565b6060600b805461067d90612230565b60605f61152983611b66565b60010190505f8167ffffffffffffffff81111561154857611548611fce565b6040519080825280601f01601f191660200182016040528015611572576020820181803683370190505b5090508181016020015b5f19017f3031323334353637383961626364656600000000000000000000000000000000600a86061a8153600a850494508461157c57509392505050565b7f9e7b61f58c47dc699ac88507c4f5bb9f121c03808c5676a8078fe583e46497015460405163045fc19560e11b81525f917f9e7b61f58c47dc699ac88507c4f5bb9f121c03808c5676a8078fe583e4649700916001600160a01b03909116906308bf832a9061163390889033908990899060040161252c565b6020604051808303815f875af115801561164f573d5f5f3e3d5ffd5b505050506040513d601f19601f820116820180604052508101906116739190612562565b8154604051630f8e573b60e21b8152600481018390523360248201529193506001600160a01b031690633e395cec906044015f604051808303815f87803b1580156116bc575f5ffd5b505af11580156116ce573d5f5f3e3d5ffd5b50505050509392505050565b5f5f82156116ed5750600160f81b6116f0565b505f5b5f7f9e7b61f58c47dc699ac88507c4f5bb9f121c03808c5676a8078fe583e46497006001810154604051631391547f60e01b815260048101899052602481018890527fff00000000000000000000000000000000000000000000000000000000000000851660448201529192506001600160a01b031690631391547f906064016020604051808303815f875af115801561178c573d5f5f3e3d5ffd5b505050506040513d601f19601f820116820180604052508101906117b09190612562565b9695505050505050565b7f9e7b61f58c47dc699ac88507c4f5bb9f121c03808c5676a8078fe583e464970154604051639cd07acb60e01b81525f917f9e7b61f58c47dc699ac88507c4f5bb9f121c03808c5676a8078fe583e4649700916001600160a01b0390911690639cd07acb9061182f9087908790600401612579565b6020604051808303815f875af115801561184b573d5f5f3e3d5ffd5b505050506040513d601f19601f8201168201806040525081019061118e9190612562565b5f6104d68261187e575f611881565b60015b60ff165f6117ba565b5f807f9e7b61f58c47dc699ac88507c4f5bb9f121c03808c5676a8078fe583e46497006001810154604051637702dcff60e01b81526004810188905260248101879052604481018690529192506001600160a01b031690637702dcff906064016020604051808303815f875af1158015611906573d5f5f3e3d5ffd5b505050506040513d601f19601f8201168201806040525081019061192a9190612562565b95945050505050565b5f7f9e7b61f58c47dc699ac88507c4f5bb9f121c03808c5676a8078fe583e46497008054604051635ca4b5b160e11b8152600481018690526001600160a01b03858116602483015292935091169063b9496b62906044015f604051808303815f87803b1580156119a1575f5ffd5b505af11580156119b3573d5f5f3e3d5ffd5b50505050505050565b80806119d057506001600160a01b03821615155b15611aaf575f6119df846111b7565b90506001600160a01b03831615801590611a0b5750826001600160a01b0316816001600160a01b031614155b8015611a3c57506001600160a01b038082165f9081526005602090815260408083209387168352929052205460ff16155b15611a655760405163a9fbf51f60e01b81526001600160a01b038416600482015260240161053a565b8115611aad5783856001600160a01b0316826001600160a01b03167f8c5be1e5ebec7d5bd14f71427d1e84f3dd0314c0f7b2291e5b200ac8c7c3b92560405160405180910390a45b505b50505f908152600460205260409020805473ffffffffffffffffffffffffffffffffffffffff19166001600160a01b0392909216919091179055565b611af6838383611c47565b610895576001600160a01b038316611b2457604051637e27328960e01b81526004810182905260240161053a565b60405163177e802f60e01b81526001600160a01b03831660048201526024810182905260440161053a565b611b598383611cc7565b610895335f8585856113e6565b5f807a184f03e93ff9f4daa797ed6e38ed64bf6a1f0100000000000000008310611bae577a184f03e93ff9f4daa797ed6e38ed64bf6a1f010000000000000000830492506040015b6d04ee2d6d415b85acef81000000008310611bda576d04ee2d6d415b85acef8100000000830492506020015b662386f26fc100008310611bf857662386f26fc10000830492506010015b6305f5e1008310611c10576305f5e100830492506008015b6127108310611c2457612710830492506004015b60648310611c36576064830492506002015b600a83106104d65760010192915050565b5f6001600160a01b0383161580159061118e5750826001600160a01b0316846001600160a01b03161480611c9f57506001600160a01b038085165f9081526005602090815260408083209387168352929052205460ff165b8061118e5750505f908152600460205260409020546001600160a01b03908116911614919050565b6001600160a01b038216611cf057604051633250574960e11b81525f600482015260240161053a565b5f611cfc83835f6111fc565b90506001600160a01b03811615610895576040516339e3563760e11b81525f600482015260240161053a565b6001600160e01b031981168114611d3d575f5ffd5b50565b5f60208284031215611d50575f5ffd5b8135610a5d81611d28565b5f5f83601f840112611d6b575f5ffd5b50813567ffffffffffffffff811115611d82575f5ffd5b602083019150836020828501011115611d99575f5ffd5b9250929050565b5f5f5f5f60608587031215611db3575f5ffd5b8435935060208501359250604085013567ffffffffffffffff811115611dd7575f5ffd5b611de387828801611d5b565b95989497509550505050565b5f81518084528060208401602086015e5f602082860101526020601f19601f83011685010191505092915050565b602081525f610a5d6020830184611def565b5f60208284031215611e3f575f5ffd5b5035919050565b80356001600160a01b0381168114611e5c575f5ffd5b919050565b5f5f60408385031215611e72575f5ffd5b611e7b83611e46565b946020939093013593505050565b606081525f611e9b6060830186611def565b602083019490945250901515604090910152919050565b5f5f5f60608486031215611ec4575f5ffd5b611ecd84611e46565b9250611edb60208501611e46565b929592945050506040919091013590565b5f5f5f60408486031215611efe575f5ffd5b83359250602084013567ffffffffffffffff811115611f1b575f5ffd5b611f2786828701611d5b565b9497909650939450505050565b5f60208284031215611f44575f5ffd5b610a5d82611e46565b602080825282518282018190525f918401906040840190835b81811015611f84578351835260209384019390920191600101611f66565b509095945050505050565b5f5f60208385031215611fa0575f5ffd5b823567ffffffffffffffff811115611fb6575f5ffd5b611fc285828601611d5b565b90969095509350505050565b634e487b7160e01b5f52604160045260245ffd5b5f5f67ffffffffffffffff841115611ffc57611ffc611fce565b50604051601f19601f85018116603f0116810181811067ffffffffffffffff8211171561202b5761202b611fce565b604052838152905080828401851015612042575f5ffd5b838360208301375f60208583010152509392505050565b5f5f5f5f6060858703121561206c575f5ffd5b843567ffffffffffffffff811115612082575f5ffd5b8501601f81018713612092575f5ffd5b6120a187823560208401611fe2565b94505060208501359250604085013567ffffffffffffffff811115611dd7575f5ffd5b5f5f604083850312156120d5575f5ffd5b6120de83611e46565b9150602083013580151581146120f2575f5ffd5b809150509250929050565b5f5f5f5f60808587031215612110575f5ffd5b61211985611e46565b935061212760208601611e46565b925060408501359150606085013567ffffffffffffffff811115612149575f5ffd5b8501601f81018713612159575f5ffd5b61216887823560208401611fe2565b91505092959194509250565b5f5f5f5f5f5f5f60a0888a03121561218a575f5ffd5b8735965060208801359550604088013567ffffffffffffffff8111156121ae575f5ffd5b6121ba8a828b01611d5b565b90965094505060608801359250608088013567ffffffffffffffff8111156121e0575f5ffd5b6121ec8a828b01611d5b565b989b979a50959850939692959293505050565b5f5f60408385031215612210575f5ffd5b61221983611e46565b915061222760208401611e46565b90509250929050565b600181811c9082168061224457607f821691505b602082108103610d7757634e487b7160e01b5f52602260045260245ffd5b634e487b7160e01b5f52601160045260245ffd5b5f8261229057634e487b7160e01b5f52601260045260245ffd5b500490565b818103818111156104d6576104d6612262565b5f600182016122b9576122b9612262565b5060010190565b80820281158282048414176104d6576104d6612262565b601f82111561089557805f5260205f20601f840160051c810160208510156122fc5750805b601f840160051c820191505b81811015611507575f8155600101612308565b67ffffffffffffffff83111561233357612333611fce565b612347836123418354612230565b836122d7565b5f601f841160018114612378575f85156123615750838201355b5f19600387901b1c1916600186901b178355611507565b5f83815260208120601f198716915b828110156123a75786850135825560209485019460019092019101612387565b50868210156123c3575f1960f88860031b161c19848701351681555b505060018560011b0183555050505050565b815167ffffffffffffffff8111156123ef576123ef611fce565b612403816123fd8454612230565b846122d7565b6020601f821160018114612435575f831561241e5750848201515b5f19600385901b1c1916600184901b178455611507565b5f84815260208120601f198516915b828110156124645787850151825560209485019460019092019101612444565b508482101561248157868401515f19600387901b60f8161c191681555b50505050600190811b01905550565b5f81518060208401855e5f93019283525090919050565b5f61118e6124b58386612490565b84612490565b6001600160a01b03851681526001600160a01b0384166020820152826040820152608060608201525f6117b06080830184611def565b5f60208284031215612501575f5ffd5b8151610a5d81611d28565b6054811061252857634e487b7160e01b5f52602160045260245ffd5b9052565b8481526001600160a01b0384166020820152608060408201525f6125536080830185611def565b905061192a606083018461250c565b5f60208284031215612572575f5ffd5b5051919050565b82815260408101610a5d602083018461250c56fea164736f6c634300081b000a",
  "devdoc": {
    "details": "All student data (scores, study time, focus levels) are encrypted on-chain",
    "errors": {
      "ERC721IncorrectOwner(address,uint256,address)": [
        {
          "details": "Indicates an error related to the ownership over a particular token. Used in transfers.",
          "params": {
            "owner": "Address of the current owner of a token.",
            "sender": "Address whose tokens are being transferred.",
            "tokenId": "Identifier number of a token."
          }
        }
      ],
      "ERC721InsufficientApproval(address,uint256)": [
        {
          "details": "Indicates a failure with the `operator`s approval. Used in transfers.",
          "params": {
            "operator": "Address that may be allowed to operate on tokens without being their owner.",
            "tokenId": "Identifier number of a token."
          }
        }
      ],
      "ERC721InvalidApprover(address)": [
        {
          "details": "Indicates a failure with the `approver` of a token to be approved. Used in approvals.",
          "params": {
            "approver": "Address initiating an approval operation."
          }
        }
      ],
      "ERC721InvalidOperator(address)": [
        {
          "details": "Indicates a failure with the `operator` to be approved. Used in approvals.",
          "params": {
            "operator": "Address that may be allowed to operate on tokens without being their owner."
          }
        }
      ],
      "ERC721InvalidOwner(address)": [
        {
          "details": "Indicates that an address can't be an owner. For example, `address(0)` is a forbidden owner in ERC-20. Used in balance queries.",
          "params": {
            "owner": "Address of the current owner of a token."
          }
        }
      ],
      "ERC721InvalidReceiver(address)": [
        {
          "details": "Indicates a failure with the token `receiver`. Used in transfers.",
          "params": {
            "receiver": "Address to which tokens are being transferred."
          }
        }
      ],
      "ERC721InvalidSender(address)": [
        {
          "details": "Indicates a failure with the token `sender`. Used in transfers.",
          "params": {
            "sender": "Address whose tokens are being transferred."
          }
        }
      ],
      "ERC721NonexistentToken(uint256)": [
        {
          "details": "Indicates a `tokenId` whose `owner` is the zero address.",
          "params": {
            "tokenId": "Identifier number of a token."
          }
        }
      ]
    },
    "events": {
      "Approval(address,address,uint256)": {
        "details": "Emitted when `owner` enables `approved` to manage the `tokenId` token."
      },
      "ApprovalForAll(address,address,bool)": {
        "details": "Emitted when `owner` enables or disables (`approved`) `operator` to manage all of its assets."
      },
      "Transfer(address,address,uint256)": {
        "details": "Emitted when `tokenId` token is transferred from `from` to `to`."
      }
    },
    "kind": "dev",
    "methods": {
      "approve(address,uint256)": {
        "details": "Gives permission to `to` to transfer `tokenId` token to another account. The approval is cleared when the token is transferred. Only a single account can be approved at a time, so approving the zero address clears previous approvals. Requirements: - The caller must own the token or be an approved operator. - `tokenId` must exist. Emits an {Approval} event."
      },
      "balanceOf(address)": {
        "details": "Returns the number of tokens in ``owner``'s account."
      },
      "checkIn(bytes32,bytes)": {
        "params": {
          "studyTimeEuint32": "Encrypted study time for today",
          "studyTimeProof": "Proof for encrypted study time"
        },
        "returns": {
          "consecutiveDays": "Number of consecutive check-in days"
        }
      },
      "createCourse(string,bytes32,bytes)": {
        "params": {
          "courseName": "Name of the course",
          "thresholdEuint32": "Encrypted passing threshold",
          "thresholdProof": "Proof for the encrypted threshold"
        },
        "returns": {
          "courseId": "The ID of the newly created course"
        }
      },
      "generateSkillProof(uint256)": {
        "params": {
          "courseId": "The course ID"
        },
        "returns": {
          "skillId": "The ID of the generated skill proof"
        }
      },
      "getApproved(uint256)": {
        "details": "Returns the account approved for `tokenId` token. Requirements: - `tokenId` must exist."
      },
      "getCheckInStats(address)": {
        "params": {
          "student": "The student address"
        },
        "returns": {
          "consecutiveDays": "Number of consecutive check-in days",
          "lastCheckInDay": "Last check-in day"
        }
      },
      "getCourse(uint256)": {
        "params": {
          "courseId": "The course ID"
        },
        "returns": {
          "exists": "Whether the course exists",
          "name": "Course name",
          "thresholdHandle": "Encrypted threshold handle"
        }
      },
      "getScore(address,uint256)": {
        "params": {
          "courseId": "The course ID",
          "student": "The student address"
        },
        "returns": {
          "passedHandle": "Encrypted pass/fail handle",
          "scoreHandle": "Encrypted score handle"
        }
      },
      "getSkillProof(address,uint256)": {
        "params": {
          "skillId": "The skill proof ID",
          "student": "The student address"
        },
        "returns": {
          "courseId": "The course ID",
          "exists": "Whether the proof exists",
          "timestamp": "When the proof was generated"
        }
      },
      "getStudyData(address,uint256)": {
        "params": {
          "student": "The student address",
          "timestamp": "The day timestamp"
        },
        "returns": {
          "exists": "Whether data exists for this day",
          "focusLevelHandle": "Encrypted focus level handle",
          "studyTimeHandle": "Encrypted study time handle"
        }
      },
      "getStudyDays(address)": {
        "params": {
          "student": "The student address"
        },
        "returns": {
          "dayTimestamps": "Array of day timestamps"
        }
      },
      "isApprovedForAll(address,address)": {
        "details": "Returns if the `operator` is allowed to manage all of the assets of `owner`. See {setApprovalForAll}"
      },
      "name()": {
        "details": "Returns the token collection name."
      },
      "ownerOf(uint256)": {
        "details": "Returns the owner of the `tokenId` token. Requirements: - `tokenId` must exist."
      },
      "recordStudyData(uint256,bytes32,bytes,bytes32,bytes)": {
        "params": {
          "focusLevelEuint32": "Encrypted focus level (0-100)",
          "focusLevelProof": "Proof for encrypted focus level",
          "studyTimeEuint32": "Encrypted study time in minutes",
          "studyTimeProof": "Proof for encrypted study time",
          "timestamp": "The day timestamp (normalized to day start)"
        }
      },
      "safeTransferFrom(address,address,uint256)": {
        "details": "Safely transfers `tokenId` token from `from` to `to`, checking first that contract recipients are aware of the ERC-721 protocol to prevent tokens from being forever locked. Requirements: - `from` cannot be the zero address. - `to` cannot be the zero address. - `tokenId` token must exist and be owned by `from`. - If the caller is not `from`, it must have been allowed to move this token by either {approve} or   {setApprovalForAll}. - If `to` refers to a smart contract, it must implement {IERC721Receiver-onERC721Received}, which is called upon   a safe transfer. Emits a {Transfer} event."
      },
      "safeTransferFrom(address,address,uint256,bytes)": {
        "details": "Safely transfers `tokenId` token from `from` to `to`. Requirements: - `from` cannot be the zero address. - `to` cannot be the zero address. - `tokenId` token must exist and be owned by `from`. - If the caller is not `from`, it must be approved to move this token by either {approve} or {setApprovalForAll}. - If `to` refers to a smart contract, it must implement {IERC721Receiver-onERC721Received}, which is called upon   a safe transfer. Emits a {Transfer} event."
      },
      "setApprovalForAll(address,bool)": {
        "details": "Approve or remove `operator` as an operator for the caller. Operators can call {transferFrom} or {safeTransferFrom} for any token owned by the caller. Requirements: - The `operator` cannot be the address zero. Emits an {ApprovalForAll} event."
      },
      "supportsInterface(bytes4)": {
        "details": "Returns true if this contract implements the interface defined by `interfaceId`. See the corresponding https://eips.ethereum.org/EIPS/eip-165#how-interfaces-are-identified[ERC section] to learn more about how these ids are created. This function call must use less than 30 000 gas."
      },
      "symbol()": {
        "details": "Returns the token collection symbol."
      },
      "tokenURI(uint256)": {
        "details": "Returns the Uniform Resource Identifier (URI) for `tokenId` token."
      },
      "transferFrom(address,address,uint256)": {
        "details": "Transfers `tokenId` token from `from` to `to`. WARNING: Note that the caller is responsible to confirm that the recipient is capable of receiving ERC-721 or else they may be permanently lost. Usage of {safeTransferFrom} prevents loss, though the caller must understand this adds an external call which potentially creates a reentrancy vulnerability. Requirements: - `from` cannot be the zero address. - `to` cannot be the zero address. - `tokenId` token must be owned by `from`. - If the caller is not `from`, it must be approved to move this token by either {approve} or {setApprovalForAll}. Emits a {Transfer} event."
      },
      "uploadScore(uint256,bytes32,bytes)": {
        "params": {
          "courseId": "The course ID",
          "scoreEuint32": "Encrypted score",
          "scoreProof": "Proof for the encrypted score"
        }
      }
    },
    "title": "Encrypted Learning Tracker",
    "version": 1
  },
  "userdoc": {
    "errors": {
      "ZamaProtocolUnsupported()": [
        {
          "notice": "Returned if the Zama protocol is not supported on the current chain"
        }
      ]
    },
    "kind": "user",
    "methods": {
      "checkIn(bytes32,bytes)": {
        "notice": "Record encrypted check-in (daily study time upload)"
      },
      "createCourse(string,bytes32,bytes)": {
        "notice": "Create a new course with encrypted threshold"
      },
      "generateSkillProof(uint256)": {
        "notice": "Generate a skill proof if student passed the course"
      },
      "getCheckInStats(address)": {
        "notice": "Get check-in statistics"
      },
      "getCourse(uint256)": {
        "notice": "Get course information"
      },
      "getScore(address,uint256)": {
        "notice": "Get encrypted score for a course"
      },
      "getSkillProof(address,uint256)": {
        "notice": "Get skill proof information"
      },
      "getStudyData(address,uint256)": {
        "notice": "Get encrypted study data for a specific day"
      },
      "getStudyDays(address)": {
        "notice": "Get list of days when study data was recorded"
      },
      "recordStudyData(uint256,bytes32,bytes,bytes32,bytes)": {
        "notice": "Record encrypted daily study data"
      },
      "uploadScore(uint256,bytes32,bytes)": {
        "notice": "Upload encrypted score for a course"
      }
    },
    "notice": "A FHEVM-based DApp for encrypted learning achievement tracking",
    "version": 1
  },
  "storageLayout": {
    "storage": [
      {
        "astId": 39341,
        "contract": "contracts/EncryptedLearningTracker.sol:EncryptedLearningTracker",
        "label": "_name",
        "offset": 0,
        "slot": "0",
        "type": "t_string_storage"
      },
      {
        "astId": 39343,
        "contract": "contracts/EncryptedLearningTracker.sol:EncryptedLearningTracker",
        "label": "_symbol",
        "offset": 0,
        "slot": "1",
        "type": "t_string_storage"
      },
      {
        "astId": 39347,
        "contract": "contracts/EncryptedLearningTracker.sol:EncryptedLearningTracker",
        "label": "_owners",
        "offset": 0,
        "slot": "2",
        "type": "t_mapping(t_uint256,t_address)"
      },
      {
        "astId": 39351,
        "contract": "contracts/EncryptedLearningTracker.sol:EncryptedLearningTracker",
        "label": "_balances",
        "offset": 0,
        "slot": "3",
        "type": "t_mapping(t_address,t_uint256)"
      },
      {
        "astId": 39355,
        "contract": "contracts/EncryptedLearningTracker.sol:EncryptedLearningTracker",
        "label": "_tokenApprovals",
        "offset": 0,
        "slot": "4",
        "type": "t_mapping(t_uint256,t_address)"
      },
      {
        "astId": 39361,
        "contract": "contracts/EncryptedLearningTracker.sol:EncryptedLearningTracker",
        "label": "_operatorApprovals",
        "offset": 0,
        "slot": "5",
        "type": "t_mapping(t_address,t_mapping(t_address,t_bool))"
      },
      {
        "astId": 45628,
        "contract": "contracts/EncryptedLearningTracker.sol:EncryptedLearningTracker",
        "label": "studentRecords",
        "offset": 0,
        "slot": "6",
        "type": "t_mapping(t_address,t_struct(StudentRecord)45607_storage)"
      },
      {
        "astId": 45633,
        "contract": "contracts/EncryptedLearningTracker.sol:EncryptedLearningTracker",
        "label": "courses",
        "offset": 0,
        "slot": "7",
        "type": "t_mapping(t_uint256,t_struct(Course)45580_storage)"
      },
      {
        "astId": 45640,
        "contract": "contracts/EncryptedLearningTracker.sol:EncryptedLearningTracker",
        "label": "skillProofs",
        "offset": 0,
        "slot": "8",
        "type": "t_mapping(t_address,t_mapping(t_uint256,t_struct(SkillProof)45623_storage))"
      },
      {
        "astId": 45642,
        "contract": "contracts/EncryptedLearningTracker.sol:EncryptedLearningTracker",
        "label": "courseCounter",
        "offset": 0,
        "slot": "9",
        "type": "t_uint256"
      },
      {
        "astId": 45644,
        "contract": "contracts/EncryptedLearningTracker.sol:EncryptedLearningTracker",
        "label": "skillCounter",
        "offset": 0,
        "slot": "10",
        "type": "t_uint256"
      },
      {
        "astId": 45646,
        "contract": "contracts/EncryptedLearningTracker.sol:EncryptedLearningTracker",
        "label": "baseTokenURI",
        "offset": 0,
        "slot": "11",
        "type": "t_string_storage"
      }
    ],
    "types": {
      "t_address": {
        "encoding": "inplace",
        "label": "address",
        "numberOfBytes": "20"
      },
      "t_array(t_uint256)dyn_storage": {
        "base": "t_uint256",
        "encoding": "dynamic_array",
        "label": "uint256[]",
        "numberOfBytes": "32"
      },
      "t_bool": {
        "encoding": "inplace",
        "label": "bool",
        "numberOfBytes": "1"
      },
      "t_mapping(t_address,t_bool)": {
        "encoding": "mapping",
        "key": "t_address",
        "label": "mapping(address => bool)",
        "numberOfBytes": "32",
        "value": "t_bool"
      },
      "t_mapping(t_address,t_mapping(t_address,t_bool))": {
        "encoding": "mapping",
        "key": "t_address",
        "label": "mapping(address => mapping(address => bool))",
        "numberOfBytes": "32",
        "value": "t_mapping(t_address,t_bool)"
      },
      "t_mapping(t_address,t_mapping(t_uint256,t_struct(SkillProof)45623_storage))": {
        "encoding": "mapping",
        "key": "t_address",
        "label": "mapping(address => mapping(uint256 => struct EncryptedLearningTracker.SkillProof))",
        "numberOfBytes": "32",
        "value": "t_mapping(t_uint256,t_struct(SkillProof)45623_storage)"
      },
      "t_mapping(t_address,t_struct(StudentRecord)45607_storage)": {
        "encoding": "mapping",
        "key": "t_address",
        "label": "mapping(address => struct EncryptedLearningTracker.StudentRecord)",
        "numberOfBytes": "32",
        "value": "t_struct(StudentRecord)45607_storage"
      },
      "t_mapping(t_address,t_uint256)": {
        "encoding": "mapping",
        "key": "t_address",
        "label": "mapping(address => uint256)",
        "numberOfBytes": "32",
        "value": "t_uint256"
      },
      "t_mapping(t_uint256,t_address)": {
        "encoding": "mapping",
        "key": "t_uint256",
        "label": "mapping(uint256 => address)",
        "numberOfBytes": "32",
        "value": "t_address"
      },
      "t_mapping(t_uint256,t_bool)": {
        "encoding": "mapping",
        "key": "t_uint256",
        "label": "mapping(uint256 => bool)",
        "numberOfBytes": "32",
        "value": "t_bool"
      },
      "t_mapping(t_uint256,t_struct(Course)45580_storage)": {
        "encoding": "mapping",
        "key": "t_uint256",
        "label": "mapping(uint256 => struct EncryptedLearningTracker.Course)",
        "numberOfBytes": "32",
        "value": "t_struct(Course)45580_storage"
      },
      "t_mapping(t_uint256,t_struct(DailyStudyData)45616_storage)": {
        "encoding": "mapping",
        "key": "t_uint256",
        "label": "mapping(uint256 => struct EncryptedLearningTracker.DailyStudyData)",
        "numberOfBytes": "32",
        "value": "t_struct(DailyStudyData)45616_storage"
      },
      "t_mapping(t_uint256,t_struct(SkillProof)45623_storage)": {
        "encoding": "mapping",
        "key": "t_uint256",
        "label": "mapping(uint256 => struct EncryptedLearningTracker.SkillProof)",
        "numberOfBytes": "32",
        "value": "t_struct(SkillProof)45623_storage"
      },
      "t_mapping(t_uint256,t_userDefinedValueType(euint32)46475)": {
        "encoding": "mapping",
        "key": "t_uint256",
        "label": "mapping(uint256 => euint32)",
        "numberOfBytes": "32",
        "value": "t_userDefinedValueType(euint32)46475"
      },
      "t_string_storage": {
        "encoding": "bytes",
        "label": "string",
        "numberOfBytes": "32"
      },
      "t_struct(Course)45580_storage": {
        "encoding": "inplace",
        "label": "struct EncryptedLearningTracker.Course",
        "members": [
          {
            "astId": 45574,
            "contract": "contracts/EncryptedLearningTracker.sol:EncryptedLearningTracker",
            "label": "name",
            "offset": 0,
            "slot": "0",
            "type": "t_string_storage"
          },
          {
            "astId": 45577,
            "contract": "contracts/EncryptedLearningTracker.sol:EncryptedLearningTracker",
            "label": "threshold",
            "offset": 0,
            "slot": "1",
            "type": "t_userDefinedValueType(euint32)46475"
          },
          {
            "astId": 45579,
            "contract": "contracts/EncryptedLearningTracker.sol:EncryptedLearningTracker",
            "label": "exists",
            "offset": 0,
            "slot": "2",
            "type": "t_bool"
          }
        ],
        "numberOfBytes": "96"
      },
      "t_struct(DailyStudyData)45616_storage": {
        "encoding": "inplace",
        "label": "struct EncryptedLearningTracker.DailyStudyData",
        "members": [
          {
            "astId": 45610,
            "contract": "contracts/EncryptedLearningTracker.sol:EncryptedLearningTracker",
            "label": "studyTime",
            "offset": 0,
            "slot": "0",
            "type": "t_userDefinedValueType(euint32)46475"
          },
          {
            "astId": 45613,
            "contract": "contracts/EncryptedLearningTracker.sol:EncryptedLearningTracker",
            "label": "focusLevel",
            "offset": 0,
            "slot": "1",
            "type": "t_userDefinedValueType(euint32)46475"
          },
          {
            "astId": 45615,
            "contract": "contracts/EncryptedLearningTracker.sol:EncryptedLearningTracker",
            "label": "exists",
            "offset": 0,
            "slot": "2",
            "type": "t_bool"
          }
        ],
        "numberOfBytes": "96"
      },
      "t_struct(SkillProof)45623_storage": {
        "encoding": "inplace",
        "label": "struct EncryptedLearningTracker.SkillProof",
        "members": [
          {
            "astId": 45618,
            "contract": "contracts/EncryptedLearningTracker.sol:EncryptedLearningTracker",
            "label": "courseId",
            "offset": 0,
            "slot": "0",
            "type": "t_uint256"
          },
          {
            "astId": 45620,
            "contract": "contracts/EncryptedLearningTracker.sol:EncryptedLearningTracker",
            "label": "timestamp",
            "offset": 0,
            "slot": "1",
            "type": "t_uint256"
          },
          {
            "astId": 45622,
            "contract": "contracts/EncryptedLearningTracker.sol:EncryptedLearningTracker",
            "label": "exists",
            "offset": 0,
            "slot": "2",
            "type": "t_bool"
          }
        ],
        "numberOfBytes": "96"
      },
      "t_struct(StudentRecord)45607_storage": {
        "encoding": "inplace",
        "label": "struct EncryptedLearningTracker.StudentRecord",
        "members": [
          {
            "astId": 45585,
            "contract": "contracts/EncryptedLearningTracker.sol:EncryptedLearningTracker",
            "label": "courseScores",
            "offset": 0,
            "slot": "0",
            "type": "t_mapping(t_uint256,t_userDefinedValueType(euint32)46475)"
          },
          {
            "astId": 45590,
            "contract": "contracts/EncryptedLearningTracker.sol:EncryptedLearningTracker",
            "label": "coursePassed",
            "offset": 0,
            "slot": "1",
            "type": "t_mapping(t_uint256,t_userDefinedValueType(euint32)46475)"
          },
          {
            "astId": 45594,
            "contract": "contracts/EncryptedLearningTracker.sol:EncryptedLearningTracker",
            "label": "hasScore",
            "offset": 0,
            "slot": "2",
            "type": "t_mapping(t_uint256,t_bool)"
          },
          {
            "astId": 45597,
            "contract": "contracts/EncryptedLearningTracker.sol:EncryptedLearningTracker",
            "label": "dailyStudyDays",
            "offset": 0,
            "slot": "3",
            "type": "t_array(t_uint256)dyn_storage"
          },
          {
            "astId": 45602,
            "contract": "contracts/EncryptedLearningTracker.sol:EncryptedLearningTracker",
            "label": "dailyStudyData",
            "offset": 0,
            "slot": "4",
            "type": "t_mapping(t_uint256,t_struct(DailyStudyData)45616_storage)"
          },
          {
            "astId": 45604,
            "contract": "contracts/EncryptedLearningTracker.sol:EncryptedLearningTracker",
            "label": "consecutiveCheckIns",
            "offset": 0,
            "slot": "5",
            "type": "t_uint256"
          },
          {
            "astId": 45606,
            "contract": "contracts/EncryptedLearningTracker.sol:EncryptedLearningTracker",
            "label": "lastCheckInDay",
            "offset": 0,
            "slot": "6",
            "type": "t_uint256"
          }
        ],
        "numberOfBytes": "224"
      },
      "t_uint256": {
        "encoding": "inplace",
        "label": "uint256",
        "numberOfBytes": "32"
      },
      "t_userDefinedValueType(euint32)46475": {
        "encoding": "inplace",
        "label": "euint32",
        "numberOfBytes": "32"
      }
    }
  }
}